{
  "_format": "hh-sol-artifact-1",
  "contractName": "Adoption",
  "sourceName": "contracts/Adoption.sol",
  "abi": [
    {
      "inputs": [],
      "stateMutability": "nonpayable",
      "type": "constructor"
    },
    {
      "anonymous": false,
      "inputs": [
        {
          "indexed": true,
          "internalType": "string",
          "name": "petId",
          "type": "string"
        },
        {
          "indexed": true,
          "internalType": "address",
          "name": "shelter",
          "type": "address"
        },
        {
          "indexed": false,
          "internalType": "uint256",
          "name": "amount",
          "type": "uint256"
        }
      ],
      "name": "FundsForwarded",
      "type": "event"
    },
    {
      "anonymous": false,
      "inputs": [
        {
          "indexed": true,
          "internalType": "address",
          "name": "adopter",
          "type": "address"
        },
        {
          "indexed": false,
          "internalType": "string",
          "name": "petId",
          "type": "string"
        },
        {
          "indexed": false,
          "internalType": "uint256",
          "name": "amount",
          "type": "uint256"
        },
        {
          "indexed": false,
          "internalType": "address",
          "name": "shelter",
          "type": "address"
        }
      ],
      "name": "PetAdopted",
      "type": "event"
    },
    {
      "anonymous": false,
      "inputs": [
        {
          "indexed": true,
          "internalType": "address",
          "name": "feeder",
          "type": "address"
        },
        {
          "indexed": false,
          "internalType": "string",
          "name": "petId",
          "type": "string"
        },
        {
          "indexed": false,
          "internalType": "uint256",
          "name": "amount",
          "type": "uint256"
        },
        {
          "indexed": false,
          "internalType": "address",
          "name": "shelter",
          "type": "address"
        }
      ],
      "name": "PetFed",
      "type": "event"
    },
    {
      "anonymous": false,
      "inputs": [
        {
          "indexed": true,
          "internalType": "string",
          "name": "petId",
          "type": "string"
        },
        {
          "indexed": true,
          "internalType": "address",
          "name": "shelter",
          "type": "address"
        }
      ],
      "name": "ShelterSet",
      "type": "event"
    },
    {
      "anonymous": false,
      "inputs": [
        {
          "indexed": true,
          "internalType": "address",
          "name": "owner",
          "type": "address"
        },
        {
          "indexed": false,
          "internalType": "uint256",
          "name": "amount",
          "type": "uint256"
        }
      ],
      "name": "Withdraw",
      "type": "event"
    },
    {
      "inputs": [
        {
          "internalType": "string",
          "name": "petId",
          "type": "string"
        }
      ],
      "name": "adoptPet",
      "outputs": [],
      "stateMutability": "payable",
      "type": "function"
    },
    {
      "inputs": [
        {
          "internalType": "string",
          "name": "petId",
          "type": "string"
        }
      ],
      "name": "feedPet",
      "outputs": [],
      "stateMutability": "payable",
      "type": "function"
    },
    {
      "inputs": [
        {
          "internalType": "string",
          "name": "petId",
          "type": "string"
        }
      ],
      "name": "getPetInfo",
      "outputs": [
        {
          "internalType": "string",
          "name": "_petId",
          "type": "string"
        },
        {
          "internalType": "uint256",
          "name": "_balance",
          "type": "uint256"
        },
        {
          "internalType": "address",
          "name": "_adopter",
          "type": "address"
        },
        {
          "internalType": "address",
          "name": "_shelter",
          "type": "address"
        },
        {
          "internalType": "bool",
          "name": "_active",
          "type": "bool"
        }
      ],
      "stateMutability": "view",
      "type": "function"
    },
    {
      "inputs": [],
      "name": "owner",
      "outputs": [
        {
          "internalType": "address",
          "name": "",
          "type": "address"
        }
      ],
      "stateMutability": "view",
      "type": "function"
    },
    {
      "inputs": [
        {
          "internalType": "string",
          "name": "petId",
          "type": "string"
        },
        {
          "internalType": "address",
          "name": "shelter",
          "type": "address"
        }
      ],
      "name": "setPetShelter",
      "outputs": [],
      "stateMutability": "nonpayable",
      "type": "function"
    },
    {
      "inputs": [],
      "name": "withdraw",
      "outputs": [],
      "stateMutability": "nonpayable",
      "type": "function"
    },
    {
      "stateMutability": "payable",
      "type": "receive"
    }
  ],
  "bytecode": "0x608060405234801561001057600080fd5b5033600160006101000a81548173ffffffffffffffffffffffffffffffffffffffff021916908373ffffffffffffffffffffffffffffffffffffffff160217905550611b2b806100616000396000f3fe6080604052600436106100595760003560e01c80633ccfd60b146100655780636cfd4b0d1461007c5780638da5cb5b146100985780639d40eb53146100c3578063ac1ee6a314610104578063b56824cb1461012d57610060565b3661006057005b600080fd5b34801561007157600080fd5b5061007a610149565b005b61009660048036038101906100919190610edc565b610363565b005b3480156100a457600080fd5b506100ad6106c8565b6040516100ba9190610f6a565b60405180910390f35b3480156100cf57600080fd5b506100ea60048036038101906100e59190610edc565b6106ee565b6040516100fb959493929190611049565b60405180910390f35b34801561011057600080fd5b5061012b600480360381019061012691906110cf565b61081f565b005b61014760048036038101906101429190610edc565b610a4f565b005b600160009054906101000a900473ffffffffffffffffffffffffffffffffffffffff1673ffffffffffffffffffffffffffffffffffffffff163373ffffffffffffffffffffffffffffffffffffffff16146101d9576040517f08c379a00000000000000000000000000000000000000000000000000000000081526004016101d09061117b565b60405180910390fd5b600047905060008111610221576040517f08c379a0000000000000000000000000000000000000000000000000000000008152600401610218906111e7565b60405180910390fd5b6000600160009054906101000a900473ffffffffffffffffffffffffffffffffffffffff1673ffffffffffffffffffffffffffffffffffffffff168260405161026990611238565b60006040518083038185875af1925050503d80600081146102a6576040519150601f19603f3d011682016040523d82523d6000602084013e6102ab565b606091505b50509050806102ef576040517f08c379a00000000000000000000000000000000000000000000000000000000081526004016102e690611299565b60405180910390fd5b600160009054906101000a900473ffffffffffffffffffffffffffffffffffffffff1673ffffffffffffffffffffffffffffffffffffffff167f884edad9ce6fa2440d8a54cc123490eb96d2768479d49ff9c7366125a94243648360405161035791906112b9565b60405180910390a25050565b600034116103a6576040517f08c379a000000000000000000000000000000000000000000000000000000000815260040161039d90611320565b60405180910390fd5b60008083836040516103b992919061137f565b9081526020016040518091039020905060008160020180546103da906113c7565b9050141580156103f857508060040160149054906101000a900460ff165b610437576040517f08c379a000000000000000000000000000000000000000000000000000000000815260040161042e90611444565b60405180910390fd5b600073ffffffffffffffffffffffffffffffffffffffff168160040160009054906101000a900473ffffffffffffffffffffffffffffffffffffffff1673ffffffffffffffffffffffffffffffffffffffff16036104ca576040517f08c379a00000000000000000000000000000000000000000000000000000000081526004016104c1906114b0565b60405180910390fd5b348160010160008282546104de91906114ff565b9250508190555042816003018190555060008160040160009054906101000a900473ffffffffffffffffffffffffffffffffffffffff1673ffffffffffffffffffffffffffffffffffffffff163460405161053890611238565b60006040518083038185875af1925050503d8060008114610575576040519150601f19603f3d011682016040523d82523d6000602084013e61057a565b606091505b50509050806105be576040517f08c379a00000000000000000000000000000000000000000000000000000000081526004016105b59061157f565b60405180910390fd5b8160040160009054906101000a900473ffffffffffffffffffffffffffffffffffffffff1673ffffffffffffffffffffffffffffffffffffffff168260020160405161060a9190611637565b60405180910390207f67242bf706f218c0884b2266eb21141d8063e9828b24357b201be13dc0c8cb8c3460405161064191906112b9565b60405180910390a33373ffffffffffffffffffffffffffffffffffffffff167f65c81d4a75a2cc562a4c84b960d1acfa7442c10128854c92446eb65c00d7c83d83600201348560040160009054906101000a900473ffffffffffffffffffffffffffffffffffffffff166040516106ba939291906116d2565b60405180910390a250505050565b600160009054906101000a900473ffffffffffffffffffffffffffffffffffffffff1681565b6060600080600080600080888860405161070992919061137f565b908152602001604051809103902090508060020181600101548260000160009054906101000a900473ffffffffffffffffffffffffffffffffffffffff168360040160009054906101000a900473ffffffffffffffffffffffffffffffffffffffff168460040160149054906101000a900460ff1684805461078a906113c7565b80601f01602080910402602001604051908101604052809291908181526020018280546107b6906113c7565b80156108035780601f106107d857610100808354040283529160200191610803565b820191906000526020600020905b8154815290600101906020018083116107e657829003601f168201915b5050505050945095509550955095509550509295509295909350565b600160009054906101000a900473ffffffffffffffffffffffffffffffffffffffff1673ffffffffffffffffffffffffffffffffffffffff163373ffffffffffffffffffffffffffffffffffffffff16146108af576040517f08c379a00000000000000000000000000000000000000000000000000000000081526004016108a69061117b565b60405180910390fd5b600073ffffffffffffffffffffffffffffffffffffffff168173ffffffffffffffffffffffffffffffffffffffff160361091e576040517f08c379a00000000000000000000000000000000000000000000000000000000081526004016109159061175c565b60405180910390fd5b806000848460405161093192919061137f565b908152602001604051809103902060040160006101000a81548173ffffffffffffffffffffffffffffffffffffffff021916908373ffffffffffffffffffffffffffffffffffffffff16021790555082826000858560405161099492919061137f565b908152602001604051809103902060020191826109b292919061194d565b506001600084846040516109c792919061137f565b908152602001604051809103902060040160146101000a81548160ff0219169083151502179055508073ffffffffffffffffffffffffffffffffffffffff168383604051610a1692919061137f565b60405180910390207f46cc8295b673a850c26390d8dc0b403d6556f2068293825eb87dcc985118ea2360405160405180910390a3505050565b60003411610a92576040517f08c379a0000000000000000000000000000000000000000000000000000000008152600401610a8990611320565b60405180910390fd5b6000808383604051610aa592919061137f565b908152602001604051809103902090508060040160149054906101000a900460ff16610b06576040517f08c379a0000000000000000000000000000000000000000000000000000000008152600401610afd90611a69565b60405180910390fd5b600073ffffffffffffffffffffffffffffffffffffffff168160000160009054906101000a900473ffffffffffffffffffffffffffffffffffffffff1673ffffffffffffffffffffffffffffffffffffffff1614610b99576040517f08c379a0000000000000000000000000000000000000000000000000000000008152600401610b9090611ad5565b60405180910390fd5b600073ffffffffffffffffffffffffffffffffffffffff168160040160009054906101000a900473ffffffffffffffffffffffffffffffffffffffff1673ffffffffffffffffffffffffffffffffffffffff1603610c2c576040517f08c379a0000000000000000000000000000000000000000000000000000000008152600401610c23906114b0565b60405180910390fd5b338160000160006101000a81548173ffffffffffffffffffffffffffffffffffffffff021916908373ffffffffffffffffffffffffffffffffffffffff16021790555034816001016000828254610c8391906114ff565b9250508190555042816003018190555060008160040160009054906101000a900473ffffffffffffffffffffffffffffffffffffffff1673ffffffffffffffffffffffffffffffffffffffff1634604051610cdd90611238565b60006040518083038185875af1925050503d8060008114610d1a576040519150601f19603f3d011682016040523d82523d6000602084013e610d1f565b606091505b5050905080610d63576040517f08c379a0000000000000000000000000000000000000000000000000000000008152600401610d5a9061157f565b60405180910390fd5b8160040160009054906101000a900473ffffffffffffffffffffffffffffffffffffffff1673ffffffffffffffffffffffffffffffffffffffff1682600201604051610daf9190611637565b60405180910390207f67242bf706f218c0884b2266eb21141d8063e9828b24357b201be13dc0c8cb8c34604051610de691906112b9565b60405180910390a33373ffffffffffffffffffffffffffffffffffffffff167f491eda7958b198ec1b5e34401b2fa298e0245e17c0517670f4e32d0950331fe883600201348560040160009054906101000a900473ffffffffffffffffffffffffffffffffffffffff16604051610e5f939291906116d2565b60405180910390a250505050565b600080fd5b600080fd5b600080fd5b600080fd5b600080fd5b60008083601f840112610e9c57610e9b610e77565b5b8235905067ffffffffffffffff811115610eb957610eb8610e7c565b5b602083019150836001820283011115610ed557610ed4610e81565b5b9250929050565b60008060208385031215610ef357610ef2610e6d565b5b600083013567ffffffffffffffff811115610f1157610f10610e72565b5b610f1d85828601610e86565b92509250509250929050565b600073ffffffffffffffffffffffffffffffffffffffff82169050919050565b6000610f5482610f29565b9050919050565b610f6481610f49565b82525050565b6000602082019050610f7f6000830184610f5b565b92915050565b600081519050919050565b600082825260208201905092915050565b60005b83811015610fbf578082015181840152602081019050610fa4565b60008484015250505050565b6000601f19601f8301169050919050565b6000610fe782610f85565b610ff18185610f90565b9350611001818560208601610fa1565b61100a81610fcb565b840191505092915050565b6000819050919050565b61102881611015565b82525050565b60008115159050919050565b6110438161102e565b82525050565b600060a08201905081810360008301526110638188610fdc565b9050611072602083018761101f565b61107f6040830186610f5b565b61108c6060830185610f5b565b611099608083018461103a565b9695505050505050565b6110ac81610f49565b81146110b757600080fd5b50565b6000813590506110c9816110a3565b92915050565b6000806000604084860312156110e8576110e7610e6d565b5b600084013567ffffffffffffffff81111561110657611105610e72565b5b61111286828701610e86565b93509350506020611125868287016110ba565b9150509250925092565b7f6f6e6c79206f776e657200000000000000000000000000000000000000000000600082015250565b6000611165600a83610f90565b91506111708261112f565b602082019050919050565b6000602082019050818103600083015261119481611158565b9050919050565b7f6e6f2066756e6473000000000000000000000000000000000000000000000000600082015250565b60006111d1600883610f90565b91506111dc8261119b565b602082019050919050565b60006020820190508181036000830152611200816111c4565b9050919050565b600081905092915050565b50565b6000611222600083611207565b915061122d82611212565b600082019050919050565b600061124382611215565b9150819050919050565b7f7472616e73666572206661696c65640000000000000000000000000000000000600082015250565b6000611283600f83610f90565b915061128e8261124d565b602082019050919050565b600060208201905081810360008301526112b281611276565b9050919050565b60006020820190506112ce600083018461101f565b92915050565b7f6d7573742073656e642045544800000000000000000000000000000000000000600082015250565b600061130a600d83610f90565b9150611315826112d4565b602082019050919050565b60006020820190508181036000830152611339816112fd565b9050919050565b600081905092915050565b82818337600083830152505050565b60006113668385611340565b935061137383858461134b565b82840190509392505050565b600061138c82848661135a565b91508190509392505050565b7f4e487b7100000000000000000000000000000000000000000000000000000000600052602260045260246000fd5b600060028204905060018216806113df57607f821691505b6020821081036113f2576113f1611398565b5b50919050565b7f70657420646f6573206e6f742065786973740000000000000000000000000000600082015250565b600061142e601283610f90565b9150611439826113f8565b602082019050919050565b6000602082019050818103600083015261145d81611421565b9050919050565b7f7368656c746572206e6f74207365740000000000000000000000000000000000600082015250565b600061149a600f83610f90565b91506114a582611464565b602082019050919050565b600060208201905081810360008301526114c98161148d565b9050919050565b7f4e487b7100000000000000000000000000000000000000000000000000000000600052601160045260246000fd5b600061150a82611015565b915061151583611015565b925082820190508082111561152d5761152c6114d0565b5b92915050565b7f666f7277617264206661696c6564000000000000000000000000000000000000600082015250565b6000611569600e83610f90565b915061157482611533565b602082019050919050565b600060208201905081810360008301526115988161155c565b9050919050565b60008190508160005260206000209050919050565b600081546115c1816113c7565b6115cb8186611340565b945060018216600081146115e657600181146115fb5761162e565b60ff198316865281151582028601935061162e565b6116048561159f565b60005b8381101561162657815481890152600182019150602081019050611607565b838801955050505b50505092915050565b600061164382846115b4565b915081905092915050565b6000815461165b816113c7565b6116658186610f90565b945060018216600081146116805760018114611696576116c9565b60ff1983168652811515602002860193506116c9565b61169f8561159f565b60005b838110156116c1578154818901526001820191506020810190506116a2565b808801955050505b50505092915050565b600060608201905081810360008301526116ec818661164e565b90506116fb602083018561101f565b6117086040830184610f5b565b949350505050565b7f696e76616c6964207368656c7465720000000000000000000000000000000000600082015250565b6000611746600f83610f90565b915061175182611710565b602082019050919050565b6000602082019050818103600083015261177581611739565b9050919050565b600082905092915050565b7f4e487b7100000000000000000000000000000000000000000000000000000000600052604160045260246000fd5b60006020601f8301049050919050565b600082821b905092915050565b6000600883026118037fffffffffffffffffffffffffffffffffffffffffffffffffffffffffffffffff826117c6565b61180d86836117c6565b95508019841693508086168417925050509392505050565b6000819050919050565b600061184a61184561184084611015565b611825565b611015565b9050919050565b6000819050919050565b6118648361182f565b61187861187082611851565b8484546117d3565b825550505050565b600090565b61188d611880565b61189881848461185b565b505050565b5b818110156118bc576118b1600082611885565b60018101905061189e565b5050565b601f821115611901576118d28161159f565b6118db846117b6565b810160208510156118ea578190505b6118fe6118f6856117b6565b83018261189d565b50505b505050565b600082821c905092915050565b600061192460001984600802611906565b1980831691505092915050565b600061193d8383611913565b9150826002028217905092915050565b611957838361177c565b67ffffffffffffffff8111156119705761196f611787565b5b61197a82546113c7565b6119858282856118c0565b6000601f8311600181146119b457600084156119a2578287013590505b6119ac8582611931565b865550611a14565b601f1984166119c28661159f565b60005b828110156119ea578489013582556001820191506020850194506020810190506119c5565b86831015611a075784890135611a03601f891682611913565b8355505b6001600288020188555050505b50505050505050565b7f70657420696e6163746976650000000000000000000000000000000000000000600082015250565b6000611a53600c83610f90565b9150611a5e82611a1d565b602082019050919050565b60006020820190508181036000830152611a8281611a46565b9050919050565b7f616c72656164792061646f707465640000000000000000000000000000000000600082015250565b6000611abf600f83610f90565b9150611aca82611a89565b602082019050919050565b60006020820190508181036000830152611aee81611ab2565b905091905056fea26469706673582212208d70008dd5b1e68e1d43fb42fc0c4a5e1ad81a5a3751c2b40047c47cea685d7664736f6c63430008130033",
  "linkReferences": {},
  "deployedLinkReferences": {}
}